:100000000C94C4010C94EC010C94EC010C94EC01E4
:100010000C94EC010C94EC010C94EC010C94EC01AC
:100020000C94EC010C94EC010C94EC010C94EC019C
:100030000C94EC010C94EC010C94EC010C94EC018C
:100040000C94BF210C94EC010C942F220C940922E7
:100050000C94EC010C94EC010C94EC010C94EC016C
:100060000C9461220C94EC0107634236B79BD8A72D
:100070001A39685618AEBAAB558C1D3CB7CC5763CD
:10008000BD6DEDFD753EF6177231BF000000803F7B
:1000900008000000BE922449123EABAAAA2ABECD97
:1000A000CCCC4C3E00000080BEABAAAAAA3E000009
:1000B0000000BF000000803F000000000008417801
:1000C000D3BB4387D1133D190E3CC3BD4282AD2B38
:1000D0003E68EC8276BED98FE1A93E4C80EFFFBE30
:1000E00001C4FF7F3F000000000064697361626C1F
:1000F000656400656E61626C6564004E61766C6972
:10010000676874733A2000536176696E672073657F
:100110007474696E67732E2E2E00456E7465726955
:100120006E672070726F6772616D206D6F6465001D
:1001300045786974696E672070726F6772616D20AF
:100140006D6F646500656E61626C656400646973FF
:1001500061626C6564004E61766C69676874733ABD
:1001600020003A200053686F77200056657273694B
:100170006F6E3A20002D2D2D2D2D2053657474693E
:100180006E6773202D2D2D2D2D004E2F46206A6F6A
:10019000696E65643A005461696C205265763A2054
:1001A0000046757365205265763A20004E6F736580
:1001B000205265763A200057696E67205265763A7C
:1001C00020004E61766C69676874733A2000546150
:1001D000696C3A2000467573653A20004E6F73656E
:1001E0003A200057696E673A200056657273696F4E
:1001F0006E3A20002D2D2D2D2D2D204C61796F75FF
:1002000074202D2D2D2D2D2D002F323535004D61D3
:1002100078206272696768746E6573733A2000684B
:100220005061004261736520707265737375726509
:100230003A2000424D58323830206D6F64756C653D
:1002400020666F756E642E004E6F20424D58323816
:1002500030206D6F64756C6520666F756E642E005E
:100260004E65772073657474696E67732076657266
:1002700073696F6E2E2053657474696E67206465B0
:100280006661756C74732E2E2E004C6F6164696EFE
:10029000672073657474696E67732E2E2E004E6529
:1002A00077206C61796F75742076657273696F6EF3
:1002B0002E2053657474696E672064656661756C81
:1002C00074732E2E2E004C6F6164696E67206C6112
:1002D000796F75742E2E2E00546F6F206D616E79BC
:1002E000204C4544732C206E6F7420656E6F7567CB
:1002F00068206D656D6F72790043757272656E74FA
:100300002053686F773A200000FF000076FFFFFF60
:100310008AFFFFFFFF00FF0000FF000019FF000041
:1003200080FFFFFFDC0000FFFF0000FF0000000077
:10033000240027002A0000000000250028002B00D0
:100340000000000800020100000304070000000094
:100350000000000000000000230026002900040423
:10036000040404040404020202020202030303035D
:100370000303010204081020408001020408102039
:10038000010204081020362411241FBECFEFD8E04C
:10039000DEBFCDBF11E0A0E0B1E0E4EEFFE602C0B9
:1003A00005900D92AE3DB107D9F724E0AEEDB1E076
:1003B00001C01D92A93DB207E1F711E0C4ECD1E004
:1003C00004C02197FE010E942F35C33CD107C9F715
:1003D0000E94A7240C94F0370C940000FB01DC0170
:1003E0007C9111965C91972F990F990F990F35E594
:1003F000292F239F020E20E0211D1124822F672F19
:100400006074472F407277FD48C0611134C04111BC
:1004100005C0922F9095892F90E004C025E5280F04
:1004200090E08BEA5F3F09F422C0552309F456C0DF
:10043000509530E0552329F0559F312D112451114D
:100440003F5F432F4095582F549F050E50E0511D9C
:10045000852F249F020E20E0211D592F549F050E49
:1004600050E0511D952F1124830F230F930F80838C
:1004700021839283089541110BC0392F2AEA329FBC
:10048000030E30E0311D11249BEA931B280FC3CFCC
:1004900090E02095982F80E0C5CF611112C04111E6
:1004A0000CC0392F2AEA329F030E30E0311D11248F
:1004B0002BEA231B95E5930FEECF922F909520E02A
:1004C000B1CF411106C025E5280F9BEA981B822F6A
:1004D000F6CF2AEA280F90E0932FF8CF9FEF2FEF67
:1004E0008FEFC5CF30ECFC012081239F020E20E06E
:1004F000211D2083FB012081239F020E20E0211D6E
:100500002083FA012081239F020E20E0211D2083F9
:1005100011240895CF92DF92EF92FF920F931F93D1
:10052000CF93DF938C01D12C33E0C32ED8011496E6
:100530008C911497D81608F04DC0CD91DC9111978D
:1005400012968C911297882389F1ED2CF12C139639
:100550002C9130E02E193F09A901440F551F240F9B
:10056000351F23503109C20FD31FAE014E5F5F4FBD
:10057000BE016F5F7F4FCE010E947202F80183813E
:1005800090E08E199F09FC01EE0FFF1F8E0F9F1F39
:10059000D801ED91FC91E80FF91F3397888199817B
:1005A000AA8180839183A283D394C0CFDC9C700105
:1005B0001124CE0DDF1DAE014E5F5F4FBE016F5F98
:1005C0007F4FCE010E947202D801ED91FC91EE0D99
:1005D000FF1DE4CFDF91CF911F910F91FF90EF901E
:1005E000DF90CF900895833081F028F4813099F026
:1005F0008230A9F008958730A9F08830C9F084309E
:10060000B1F4809180008F7D03C0809180008F774E
:1006100080938000089584B58F7784BD089584B554
:100620008F7DFBCF8091B0008F778093B0000895CD
:100630008091B0008F7DF9CF1F93CF93DF93282F48
:1006400030E0F901E05CFC4F8491F901EE58FC4F79
:10065000D491F901E25AFC4FC491CC23A9F0162F92
:1006600081110E94F302EC2FF0E0EE0FFF1FEA5C15
:10067000FC4FA591B4918FB7F894EC91111108C07B
:10068000D095DE23DC938FBFDF91CF911F9108952A
:10069000DE2BF8CFCF93DF9390E0FC01EE58FC4FB8
:1006A0002491825A9C4FFC0184918823C9F090E0E8
:1006B000880F991FFC01E45DFC4FA591B491FC01EA
:1006C000EA5CFC4FC591D49161110DC09FB7F894BD
:1006D0008C91209582238C938881282328839FBF27
:1006E000DF91CF910895623051F49FB7F8943C9117
:1006F000822F809583238C93E8812E2BEFCF8FB7A9
:10070000F894EC912E2B2C938FBFEACF3FB7F8943F
:100710008091430390914403A0914503B091460317
:1007200026B5A89B05C02F3F19F00196A11DB11D4C
:100730003FBFBA2FA92F982F8827BC01CD01620F88
:10074000711D811D911D42E0660F771F881F991F43
:100750004A95D1F708958F929F92AF92BF92CF9210
:10076000DF92EF92FF926B017C010E9486034B01A6
:100770005C01C114D104E104F104B9F00E948603C4
:10078000681979098A099B09683E734081059105BA
:1007900080F321E0C21AD108E108F10888EE880E42
:1007A00083E0981EA11CB11CE4CFFF90EF90DF9076
:1007B000CF90BF90AF909F908F9008952FB7F894EF
:1007C00060913F03709140038091410390914203F7
:1007D0002FBF08954F925F926F927F929F92AF9238
:1007E000BF92CF92DF92EF92FF920F931F93CF931E
:1007F000DF9300D01F92CDB7DEB7D0908C048091EC
:100800008F0490919004A0919104B0919204892B4F
:100810008A2B8B2BD9F00E94860300916D031091D7
:100820006E0320916F0330917003601B710B820B7C
:10083000930B00918F0410919004209191043091BA
:1008400092046017710782079307C8F20E9486031B
:1008500060936D0370936E0380936F0390937003A6
:10086000E0919704F0919804309759F040919304E7
:100870005091940460919504709196048D2D099582
:10088000D82EE0906B03F0906C034D2C512C712C02
:10089000612CE114F10409F459C0D7011C96CC90E5
:1008A0001C9780918D0490918E048436910510F4EC
:1008B0001C961C92D701ED91FC91A280B380198205
:1008C0001A821B82DD2079F1F701369610E000E0F4
:1008D0002191222319F19280992001F130E050E01A
:1008E00040E02F5F3F4F4F4F5F4FC301B2010E9467
:1008F000EB349B01AC01892D90E0B0E0A0E0BC019D
:10090000CD016F5F7F4F8F4F9F4F0E94EB34A1E06F
:10091000B0E0AC0FBD1FA00FB11F8C930F5F1F4F36
:1009200003301105A9F609811A812B81F70145854C
:10093000568562817381C701F5010995D7011C961F
:10094000CC921C971496ED90FC90A3CF80916903F4
:1009500090916A038C010F5F1F4F10936A030093FD
:1009600069034997B4F10E94DE03C0906503D090FB
:100970006603E0906703F09068039B01AC012C19BB
:100980003D094E095F0921F421E030E040E050E0EC
:1009900088EE93E0089FB001099F700D189F700DBD
:1009A0001124072E000C880B990B0E949E30309367
:1009B0008E0420938D0410926A03109269030E94A2
:1009C000DE036093650370936603809367039093DF
:1009D00068030F900F900F90DF91CF911F910F91AF
:1009E000FF90EF90DF90CF90BF90AF909F907F905F
:1009F0006F905F904F90089508950895AF92BF92C1
:100A0000CF92DF92EF92FF920F931F93CF93DF93DA
:100A10006C017B018B01040F151FEB015E01AE1809
:100A2000BF08C017D10759F06991D601ED91FC912B
:100A30000190F081E02DC6010995892B79F7C50158
:100A4000DF91CF911F910F91FF90EF90DF90CF90AA
:100A5000BF90AF900895FC01538D448D252F30E059
:100A6000842F90E0821B930B541710F0CF960895BB
:100A700001970895FC01918D828D981761F0A28DE8
:100A8000AE0FBF2FB11D5D968C91928D9F5F9F73AE
:100A9000928F90E008958FEF9FEF0895FC01918D64
:100AA000828D981731F0828DE80FF11D858D90E0D1
:100AB00008958FEF9FEF0895FC01918D228D892F6E
:100AC00090E0805C9F4F821B91098F739927089556
:100AD00083EE93E00E945C0521E0892B09F420E07D
:100AE000822F089580E090E0892B29F00E9468050C
:100AF00081110C9400000895FC01A48DA80FB92F5A
:100B0000B11DA35ABF4F2C91848D90E001968F7335
:100B10009927848FA689B7892C93A089B1898C9154
:100B2000837080648C93938D848D981306C00288A3
:100B3000F389E02D80818F7D80830895EF92FF926D
:100B40000F931F93CF93DF93EC0181E0888F9B8DF0
:100B50008C8D98131AC0E889F989808185FF15C0AA
:100B60009FB7F894EE89FF896083E889F9898081CD
:100B70008370806480839FBF81E090E0DF91CF919C
:100B80001F910F91FF90EF900895F62E0B8D10E0BE
:100B90000F5F1F4F0F731127E02E8C8D8E110CC02D
:100BA0000FB607FCFACFE889F989808185FFF5CF78
:100BB000CE010E947C05F1CFEB8DEC0FFD2FF11DD6
:100BC000E35AFF4FF0829FB7F8940B8FEA89FB89B5
:100BD00080818062CFCF0F931F93CF93DF938C01DF
:100BE000D0E0C0E0F801EC0FFD1F6491662341F0F6
:100BF00083EE93E00E949E05892B11F02196F2CF9F
:100C0000CE01DF91CF911F910F910895CF93DF9384
:100C1000EC01888D8823B9F0AA89BB89E889F98914
:100C20008C9185FD03C0808186FD0DC00FB607FC49
:100C3000F7CF8C9185FFF2CF808185FFEDCFCE017C
:100C40000E947C05E9CFDF91CF91089520910302A6
:100C5000260F3327331F21323105ECF42091B903DD
:100C6000FC0190E080E0243069F082E00895A091DA
:100C700003022191AC014D515E4FA40FB52FB11D60
:100C80002C930196861798F380910302680F609366
:100C9000030280E0089581E008951092B90381E095
:100CA0008093B8031092930361E082E10E941C03D9
:100CB00061E083E10E941C03E9EBF0E080818E7F1C
:100CC000808380818D7F808388E48093B80085E471
:100CD0008093BC000895CF93DF9391E09093E2015D
:100CE0008823B9F0C091B800D091BA008091BC00BF
:100CF0008A7B8093BC0060E082E10E941C0360E07C
:100D000083E10E941C030E944D06D093BA00C09359
:100D1000B800DF91CF9108958F929F92AF92BF92CA
:100D2000CF92DF92EF92FF920F931F93CF93DF93B7
:100D3000D091E203D13208F0D7C0182FC091E1035F
:100D40000E9486036B017C018091B90381116BC005
:100D500082E08093B9031093B8038FEF8093B703B9
:100D60001092B603D093B503A1ECB3E0E5E9F3E04C
:100D700080E0D81391C01092940380919403CC0F1B
:100D8000C82BC093940380919303813009F088C0ED
:100D9000109293030E9486036B017C01809194035F
:100DA0008093BB008091BB039091BC03A091BD03D5
:100DB000B091BE03892B8A2B8B2BA1F00E94860356
:100DC0000091BB031091BC032091BD033091BE0381
:100DD0006C197D098E099F0906171707280739071F
:100DE00008F442C08091BC0083FDD8CF85EC80938D
:100DF000BC000E9486036B017C018091B9038230A4
:100E000009F450C08091B7038F3F09F46FC08091FF
:100E1000B703803209F46CC08091B703803309F4C2
:100E200069C084E026C08091BB039091BC03A0916F
:100E3000BD03B091BE03892B8A2B8B2B09F484CF81
:100E40000E9486038090BB039090BC03A090BD03DA
:100E5000B090BE036C197D098E099F09861697060E
:100E6000A806B90608F070CF8091BA030E946B06FD
:100E700085E01092C0031092E2031092BF03DF914D
:100E8000CF911F910F91FF90EF90DF90CF90BF9087
:100E9000AF909F908F9008959D9191938F5F69CFB0
:100EA00085EEA5CF8091BB039091BC03A091BD03BB
:100EB000B091BE03892B8A2B8B2B09F49ECF0E9405
:100EC00086030091BB031091BC032091BD033091B8
:100ED000BE036C197D098E099F090617170728079D
:100EE000390708F08ACFC0CF81E0C3CF80E0C1CFFF
:100EF00082E0BFCF83E0BDCFCF92DF92EF92FF922F
:100F00000F931F93CF93DF93D82FC62F613208F032
:100F100098C00E9486036B017C018091B903811106
:100F20006BC081E08093B9038093B8039FEF9093E7
:100F3000B7031092B6039C0F9093B503809394036C
:100F400080919403DD0FD82BD09394038091930369
:100F5000813009F078C0109293030E9486036B01E0
:100F60007C01809194038093BB008091BB0390919E
:100F7000BC03A091BD03B091BE03892B8A2B8B2BA0
:100F8000A1F00E9486030091BB031091BC03209145
:100F9000BD033091BE036C197D098E099F090617A8
:100FA00017072807390708F448C08091BC0083FD63
:100FB000D8CF85EC8093BC000E9486036B017C0136
:100FC0008091B903813009F440C08091B6038C1739
:100FD00010F4C091B603E5E9F3E0A3E7B3E080E0E5
:100FE0008C1355C08C2FDF91CF911F910F91FF90E3
:100FF000EF90DF90CF9008958091BB039091BC0358
:10100000A091BD03B091BE03892B8A2B8B2B09F4D1
:1010100084CF0E9486030091BB031091BC032091F2
:10102000BD033091BE036C197D098E099F09061717
:1010300017072807390708F070CF8091BA030E947C
:101040006B06C0E0CFCF85EEB5CF8091BB0390910A
:10105000BC03A091BD03B091BE03892B8A2B8B2BBF
:1010600009F4AECF0E9486030091BB031091BC032C
:101070002091BD033091BE036C197D098E099F0933
:10108000061717072807390708F09ACFD6CF91918E
:101090009D938F5FA5CF0895E091720380917103B6
:1010A000E81730F4F0E0ED58FC4F808190E00895AF
:1010B0008FEF9FEF089590917203809171032FEF4E
:1010C0003FEF981748F4E92FF0E0ED58FC4F2081EE
:1010D00030E09F5F90937203C9010895809171037E
:1010E00090917203891B990B0895CF92DF92EF9232
:1010F000FF920F931F93CF93DF937C01CB018A0163
:101100002091BF03222389F0EB016B01C40ED51E91
:10111000CC15DD0569F06991D701ED91FC91019045
:10112000F081E02DC7010995F3CF642F0E942606B8
:10113000C801DF91CF911F910F91FF90EF90DF9049
:10114000CF900895CF93DF931F92CDB7DEB7698319
:101150002091BF032223F9F02091E203203258F0BE
:1011600021E030E0FC013383228390E080E00F90A7
:10117000DF91CF9108958091C003E82FF0E0EF5305
:10118000FC4F998190838F5F8093C0038093E2032B
:1011900081E090E0ECCF61E0CE0101960E9426064E
:1011A000F7CFCF93C62F9091AE0421E02093BF03D9
:1011B0009093E1031092C0031092E203682F80E83D
:1011C00094E00E94A2086C2F80E894E00E94A2089C
:1011D00081E0CF910C948C0690E080E00895CF924E
:1011E000DF92EF9230E020E02617370761F0FA0136
:1011F000C080D180E280FC01C192D192E192CF0106
:101200002F5F3F4FF1CFEF90DF90CF900895DF92A7
:10121000EF92FF920F931F93CF93DF9300D01F9213
:10122000CDB7DEB7873609F478C008F06AC08823E6
:1012300009F478C0813009F470C010E000E000FDCE
:1012400074C0F982EA82DB8261E08DE00E941C03B7
:101250006091630370E0AE014F5F5F4F80915F0369
:10126000909160030E94EF0860915D0370E0AE0111
:101270004F5F5F4F8091590390915A030E94EF088E
:101280006091570370E0AE014F5F5F4F8091530351
:10129000909154030E94EF086091510370E0AE01F9
:1012A0004F5F5F4F80914D0390914E030E94EF0876
:1012B00060914B0370E0AE014F5F5F4F8091470339
:1012C000909148030E94EF080E94EA0362E370E0F5
:1012D00080E090E00E94AB030F5F1F4F08301105C4
:1012E00009F0ADCF60E08DE00E941C030F900F90DD
:1012F0000F90DF91CF911F910F91FF90EF90DF90B2
:101300000895823779F0873709F097CFDD24DA9492
:10131000EE24EA94FF24FA9490CFD12C80E8E82EB2
:10132000F12C8BCFD12CE12CF5CF19821A821B82A4
:1013300060E08BCF4F925F926F927F929F92AF92BD
:10134000BF92CF92DF92EF92FF920F931F93CF93B2
:10135000DF934090000150900101FC01DB01842FDC
:1013600090E048E0DD24D39435E0E32E38E0F32E1E
:1013700052E0C52E8D01061B170B081719070CF03C
:1013800064C05D013C91311116C04E9C80014F9CA0
:10139000100D5E9C100D1124280137EE431A39EC14
:1013A000530A352D340D09F064C0CC92222331F05C
:1013B0001082118212823C91323071F490805181FE
:1013C000C281692C650E7724771C83010C0F111DD7
:1013D00000381140ECF0DC921196E501A880D1E0D4
:1013E000AD1214C0B080518132816B2C650E772410
:1013F000771C8301030F111D012BC9F41082118288
:1014000012828D0101501109E80118823396B2CF82
:10141000192D140F08F41FEF1083540F08F45FEF19
:1014200051833C2F340F08F43FEF3283D5CF850131
:10143000101B08F410E01083501B08F450E0518397
:10144000301B08F430E03283E1CF5092010140922A
:101450000001DF91CF911F910F91FF90EF90DF90EE
:10146000CF90BF90AF909F907F906F905F904F9084
:101470000895222309F4B0CF9BCFCF93DF93CDB74C
:10148000DEB72C970FB6F894DEBF0FBECDBF1A861D
:101490001B861C862A853B854C852F833887498788
:1014A0002C833D834E8329833A834B832091F10221
:1014B0003091F2028230910509F46CC0039709F46F
:1014C00089C02115310509F454C02130310509F4D2
:1014D0007AC06091630370E0AE014F5F5F4F80910F
:1014E0005F03909160030E94EF0860915D0370E0DC
:1014F000AE014C5F5F4F8091590390915A030E9457
:10150000EF086091570370E0AE01495F5F4F809133
:101510005303909154030E94EF086091510370E0CF
:10152000AE01495F5F4F80914D0390914E030E9441
:10153000EF0860914B0370E0AE01465F5F4F809112
:101540004703909148030E94EF088091F102909127
:10155000F20201969093F2028093F1020E94EA0354
:101560002C960FB6F894DEBF0FBECDBFDF91CF91A2
:1015700008958FEF8A878B878C878A859B85AC85BA
:101580008F839887A9878C839D83AE8389839A8371
:10159000AB839FCF8FEF8A878B878C872A3031056B
:1015A0002CF489838A838B83898793CF24313105F7
:1015B0000CF08FCF8C838D838E838F83888723312C
:1015C000310509F086CF8FEF9FEF9093F202809361
:1015D000F1027FCF2D303105A1F064F421153105E2
:1015E00021F02230310509F074CF8FEF89838A838F
:1015F0008B836FCF2F30310521F02931310519F35D
:1016000068CF8FEF8C838D838E8363CFCF93DF93EF
:10161000EC01EFE5F3E0648170E0AC018081918141
:101620000E94EF08E9E5F3E0648170E0AE0180819B
:1016300091810E94EF08E3E5F3E0648170E0AE0180
:10164000808191810E94EF08EDE4F3E0648170E015
:10165000AE01808191810E94EF08E7E4F3E06481AC
:1016600070E0AE01808191810E94EF08DF91CF91FF
:101670000C94EA03E82F209101033091020340917A
:10168000030350910403A8E1B1E00E948B309B0159
:10169000AC01A0910201B09103010E9496309B0120
:1016A000AC01A0E0BE2F0E948B30892F08952F92AD
:1016B0003F924F925F926F927F928F929F92AF92E2
:1016C000BF92CF92DF92EF92FF920F931F93CF932F
:1016D000DF93CDB7DEB72B970FB6F894DEBF0FBE02
:1016E000CDBF9E838D838B01CB011A821982FC01B1
:1016F000459155916591749129813A812F5F3F4FB2
:101700003A83298304964F3F91F7F801859195918B
:10171000A591B4915B2F2A2E492E90E080E00C5FBA
:101720001F4FF80185909590A590B4908986B4E0FC
:1017300095958795BA95E1F7282FE82DF0E0F88781
:10174000EF83682C62943FE0632269817A81603183
:10175000710578F4642F042E000C770B6817790755
:101760003CF04F3029F021E0240F621608F4622E7D
:10177000462D712C30E06216730608F070C0E52F1C
:101780002B82842D5B2D2A2C492C622F932F9301C1
:10179000662E792E512C90E0841995099695982FF4
:1017A000882797958795312CBB81AB2FB0E0A21984
:1017B000B309B695BA2FAA27B795A795BB87AA876D
:1017C000652F70E07C836B83F0E0E61BF70BF695EA
:1017D000FE2FEE27F795E7957301E21AF30A19F445
:1017E000EE24E394F12CB7010E941B356B018A852E
:1017F0009B85B7010E941B357B876A87CF01B701A4
:101800000E941B35CC0CDD1CEA85FB85EE0FFF1F0B
:10181000FB87EA87660F771F542C4424322C22243E
:10182000EB81FC819E2F8827F901EE0FFF1FE20F4D
:10183000F31FAD81BE81EA0FFB1F6216730698F09D
:101840005082318292834C0C5D1CAA85BB852A0E86
:101850003B1E860F971F2F5F3F4F3396EECFEB2D2A
:10186000AB82892D97CF8F819885492C2A2C5B2DAF
:10187000E985EF3F09F053CF8D819E812B960FB6FE
:10188000F894DEBF0FBECDBFDF91CF911F910F91B6
:10189000FF90EF90DF90CF90BF90AF909F908F9090
:1018A0007F906F905F904F903F902F900895282FDA
:1018B00086FD2095E22FEF732F7086FD2F5FE69552
:1018C000E695E695E670F0E0E25CFE4F9181929F2E
:1018D000902D212D112492959F702295207F922B7F
:1018E0002081920F87FD919580E8890F089580915E
:1018F0000601909107012091040130910501821B9E
:10190000930B60919B0470E00E94073560939A04EA
:1019100075956795759567956F73772760939904AB
:101920000895AFE1B3E090E080E02D91222331F003
:10193000E82FF0E0EA5FFC4F90838F5F9F5F943168
:10194000A1F780939B040C94770CCF92DF92EF92D7
:10195000FF920F931F93CF93DF93EC01288530E024
:10196000F901E05CFC4F8491F901EE58FC4F0491C1
:10197000F901E25AFC4F1491112309F446C0811178
:101980000E94F302E12FF0E0EE0FFF1FEC5AFC4F34
:10199000A591B491EC910E2391E080E009F490E0E0
:1019A000092F182F0E94DE03AB01BC018B8181300F
:1019B00079F50115110529F488834C835D836E83C5
:1019C0007F8388818823B9F08C819D81AE81BF811E
:1019D0006A017B01C81AD90AEA0AFB0AD701C601C3
:1019E000893B9B40A105B10534F081E08A834C839B
:1019F0005D836E837F830B83DF91CF911F910F9166
:101A0000FF90EF90DF90CF90089510E000E0CACFF4
:101A10008111D7CF01301105A1F618828C819D81EB
:101A2000AE81BF816A017B01C81AD90AEA0AFB0AA2
:101A3000D701C6014597A109B109833D9340A1058E
:101A4000B105C8F681E08983BCCFFC019181828118
:101A5000811105C0892F90E011821282089582E0E1
:101A600090E0FACF0F931F93CF93DF932091E10182
:101A70002F5F322F37703093E10120FF2BC020E819
:101A800031FD2064347009F02062205FFC01EC011C
:101A9000239600E011E06485662329F070E0C80118
:101AA0000E941B356F5F6187322F369F030E30E037
:101AB000311D1124311110C01682662311F06150BE
:101AC00061873196EC17FD0731F7DF91CF911F91B8
:101AD0000F91089520E0D4CF31503683EECFCF93CD
:101AE000DF93EC010E94860379836883DF91CF91B5
:101AF0000895CF93DF93EC010E94860328813981FA
:101B0000621B730B6A307105B8F3DF91CF910895B2
:101B10004F925F927F928F929F92AF92BF92CF929D
:101B2000DF92EF92FF920F931F93CF93DF93EB011E
:101B30000F962C010E94790DF8948A819B811816CA
:101B400019060CF0CDC1E881F98165B1862E689443
:101B500084F835B13F7E35B9DA848F812D2D281B6D
:101B6000822F2F834F85042E000C550BAA81BB8139
:101B70007D85FC84EE847F5FF394E3949E8198845A
:101B8000B984AB841181C12C6C2D0C2D2C2D21819D
:101B9000112788942111280F08F42FEF819588943C
:101BA00070FD120F1795889471FD120F1795889488
:101BB00072FD120F1795889473FD120F1795889474
:101BC00074FD120F1795889475FD120F1795889460
:101BD00076FD120F1795889477FD120F179588944C
:101BE000622F7111612F8D0D162F002C85B800C04A
:101BF00017FF35B920816627889400C000C0002CEB
:101C000035B92111290F00C0002C85B800C016FF7E
:101C100035B908F42FEF9195889400C000C0002CCE
:101C200035B9F0FC620F00C0002C85B800C015FF6C
:101C300035B967958894F1FC620F00C000C0002C94
:101C400035B96795889400C0002C85B800C014FF92
:101C500035B9F2FC620F6795889400C000C0002C73
:101C600035B9F3FC620F00C0002C85B800C013FF2B
:101C700035B967958894F4FC620F00C000C0002C51
:101C800035B96795889400C0002C85B800C012FF54
:101C900035B9F5FC620F6795889400C000C0002C30
:101CA00035B9F6FC620F00C0002C85B800C011FFEA
:101CB00035B967958894F7FC620F00C000C0002C0E
:101CC00035B96795889400C0002C85B800C010FF16
:101CD00035B9122FF110162F9B0D00C000C0002C3B
:101CE00035B900C000C0002C85B800C017FF35B959
:101CF00022816627889400C000C0002C35B92111CC
:101D0000290D00C0002C85B800C016FF35B908F4B5
:101D10002FEFE40FF51F00C000C0002C35B9E0FC28
:101D2000620F00C0002C85B800C015FF35B967955B
:101D30008894E1FC620F00C000C0002C35B96795A3
:101D4000889400C0002C85B800C014FF35B9E2FCAF
:101D5000620F6795889400C000C0002C35B9E3FC81
:101D6000620F00C0002C85B800C013FF35B967951D
:101D70008894E4FC620F00C000C0002C35B9679560
:101D8000889400C0002C85B800C012FF35B9E5FC6E
:101D9000620F6795889400C000C0002C35B9E6FC3E
:101DA000620F00C0002C85B800C011FF35B96795DF
:101DB0008894E7FC620F00C000C0002C35B967951D
:101DC000889400C0002C85B800C010FF35B9122FD0
:101DD000E110162F919400C000C0002C35B99A0C68
:101DE00000C000C085B800C017FF35B92181662743
:101DF000889400C000C0002C35B92111280F00C004
:101E0000002C85B800C016FF35B908F42FEF819576
:101E1000889400C000C0002C35B970FD620F00C06E
:101E2000002C85B800C015FF35B96795889471FD01
:101E3000620F00C000C0002C35B96795889400C0BF
:101E4000002C85B800C014FF35B972FD620F67958C
:101E5000889400C000C0002C35B973FD620F00C02B
:101E6000002C85B800C013FF35B96795889474FDC0
:101E7000620F00C000C0002C35B96795889400C07F
:101E8000002C85B800C012FF35B975FD620F67954B
:101E9000889400C000C0002C35B976FD620F00C0E8
:101EA000002C85B800C011FF35B96795889477FD7F
:101EB000620F00C000C0002C35B96795889400C03F
:101EC000002C85B800C010FF35B9122F7111162FE4
:101ED0008D0D00C000C0002C35B9119709F086CED9
:101EE0004A815B8120EE31E0DA010E943535DC0168
:101EF000CB0164E0B695A795979587956A95D1F73C
:101F000030E020E0B901EAE94E9F040E611D5E9FBA
:101F1000600D711D1124650F711D860F971FA11D86
:101F2000B11D893E43E09407A105B10508F434C012
:101F3000885E9340A109B10942E0B695A7959795AF
:101F400087954A95D1F747E0849F080E211D949FFD
:101F5000200D311D1124290F311D6091E00170E029
:101F6000860F971F280F391F80913F0390914003E0
:101F7000A0914103B0914203432F5527840F951F31
:101F8000A11DB11D80933F0390934003A093410393
:101F9000B09342032093E0017894C201DF91CF9186
:101FA0001F910F91FF90EF90DF90CF90BF90AF9077
:101FB0009F908F907F905F904F900C946F0D80E971
:101FC00091E00895249A08954F925F927F928F92A4
:101FD0009F92AF92BF92CF92DF92EF92FF920F93B8
:101FE0001F93CF93DF93EB010F962C010E94790D85
:101FF000F8948A819B81181619060CF0CDC1E881EE
:10200000F98165B1862E689483F835B1377F35B98B
:10201000DA848F812D2D281B822F2F834F85042E4C
:10202000000C550BAA81BB817D85FC84EE847F5F0B
:10203000F394E3949E819884B984AB841181C12C7C
:102040006C2D0C2D2C2D2181112788942111280F06
:1020500008F42FEF8195889470FD120F17958894DE
:1020600071FD120F1795889472FD120F17958894C1
:1020700073FD120F1795889474FD120F17958894AD
:1020800075FD120F1795889476FD120F1795889499
:1020900077FD120F17958894622F7111612F8D0DA6
:1020A000162F002C85B800C017FF35B92081662790
:1020B000889400C000C0002C35B92111290F00C040
:1020C000002C85B800C016FF35B908F42FEF9195A4
:1020D000889400C000C0002C35B9F0FC620F00C02D
:1020E000002C85B800C015FF35B967958894F1FCC0
:1020F000620F00C000C0002C35B96795889400C0FD
:10210000002C85B800C014FF35B9F2FC620F67954A
:10211000889400C000C0002C35B9F3FC620F00C0E9
:10212000002C85B800C013FF35B967958894F4FC7E
:10213000620F00C000C0002C35B96795889400C0BC
:10214000002C85B800C012FF35B9F5FC620F679509
:10215000889400C000C0002C35B9F6FC620F00C0A6
:10216000002C85B800C011FF35B967958894F7FC3D
:10217000620F00C000C0002C35B96795889400C07C
:10218000002C85B800C010FF35B9122FF110162FA2
:102190009B0D00C000C0002C35B900C000C0002C51
:1021A00085B800C017FF35B922816627889400C022
:1021B00000C0002C35B92111290D00C0002C85B8B4
:1021C00000C016FF35B908F42FEFE40FF51F00C06B
:1021D00000C0002C35B9E0FC620F00C0002C85B8AF
:1021E00000C015FF35B967958894E1FC620F00C007
:1021F00000C0002C35B96795889400C0002C85B8C4
:1022000000C014FF35B9E2FC620F6795889400C0E6
:1022100000C0002C35B9E3FC620F00C0002C85B86B
:1022200000C013FF35B967958894E4FC620F00C0C5
:1022300000C0002C35B96795889400C0002C85B883
:1022400000C012FF35B9E5FC620F6795889400C0A5
:1022500000C0002C35B9E6FC620F00C0002C85B828
:1022600000C011FF35B967958894E7FC620F00C084
:1022700000C0002C35B96795889400C0002C85B843
:1022800000C010FF35B9122FE110162F919400C035
:1022900000C0002C35B99A0C00C000C085B800C041
:1022A00017FF35B921816627889400C000C0002C33
:1022B00035B92111280F00C0002C85B800C016FFC9
:1022C00035B908F42FEF8195889400C000C0002C28
:1022D00035B970FD620F00C0002C85B800C015FF35
:1022E00035B96795889471FD620F00C000C0002C5D
:1022F00035B96795889400C0002C85B800C014FFDC
:1023000035B972FD620F6795889400C000C0002C3B
:1023100035B973FD620F00C0002C85B800C013FFF3
:1023200035B96795889474FD620F00C000C0002C19
:1023300035B96795889400C0002C85B800C012FF9D
:1023400035B975FD620F6795889400C000C0002CF8
:1023500035B976FD620F00C0002C85B800C011FFB2
:1023600035B96795889477FD620F00C000C0002CD6
:1023700035B96795889400C0002C85B800C010FF5F
:1023800035B9122F7111162F8D0D00C000C0002C11
:1023900035B9119709F086CE4A815B8120EE31E094
:1023A000DA010E943535DC01CB0164E0B695A795D2
:1023B000979587956A95D1F730E020E0B901EAE971
:1023C0004E9F040E611D5E9F600D711D1124650FEF
:1023D000711D860F971FA11DB11D893E43E0940713
:1023E000A105B10508F434C0885E9340A109B10984
:1023F00042E0B695A795979587954A95D1F747E01E
:10240000849F080E211D949F200D311D1124290F3A
:10241000311D6091E00170E0860F971F280F391F72
:1024200080913F0390914003A0914103B0914203FA
:10243000432F5527840F951FA11DB11D80933F0386
:1024400090934003A0934103B09342032093E00193
:102450007894C201DF91CF911F910F91FF90EF907F
:10246000DF90CF90BF90AF909F908F907F905F90C4
:102470004F900C946F0D239A08954F925F927F9224
:102480008F929F92AF92BF92CF92DF92EF92FF9284
:102490000F931F93CF93DF93EB010F962C010E94B4
:1024A000790DF8948A819B81181619060CF0CDC11C
:1024B000E881F98165B1862E689482F835B13B7F59
:1024C00035B9DA848F812D2D281B822F2F834F85DC
:1024D000042E000C550BAA81BB817D85FC84EE8403
:1024E0007F5FF394E3949E819884B984AB841181D7
:1024F000C12C6C2D0C2D2C2D21811127889421119C
:10250000280F08F42FEF8195889470FD120F17950E
:10251000889471FD120F1795889472FD120F17950C
:10252000889473FD120F1795889474FD120F1795F8
:10253000889475FD120F1795889476FD120F1795E4
:10254000889477FD120F17958894622F7111612F6F
:102550008D0D162F002C85B800C017FF35B92081CE
:102560006627889400C000C0002C35B92111290FBE
:1025700000C0002C85B800C016FF35B908F42FEF55
:102580009195889400C000C0002C35B9F0FC620F12
:1025900000C0002C85B800C015FF35B96795889438
:1025A000F1FC620F00C000C0002C35B9679588941B
:1025B00000C0002C85B800C014FF35B9F2FC620FD2
:1025C0006795889400C000C0002C35B9F3FC620FF9
:1025D00000C0002C85B800C013FF35B967958894FA
:1025E000F4FC620F00C000C0002C35B967958894D8
:1025F00000C0002C85B800C012FF35B9F5FC620F91
:102600006795889400C000C0002C35B9F6FC620FB5
:1026100000C0002C85B800C011FF35B967958894BB
:10262000F7FC620F00C000C0002C35B96795889494
:1026300000C0002C85B800C010FF35B9122FF11072
:10264000162F9B0D00C000C0002C35B900C000C083
:10265000002C85B800C017FF35B922816627889401
:1026600000C000C0002C35B92111290D00C0002C7C
:1026700085B800C016FF35B908F42FEFE40FF51F39
:1026800000C000C0002C35B9E0FC620F00C0002C77
:1026900085B800C015FF35B967958894E1FC620FD5
:1026A00000C000C0002C35B96795889400C0002C8C
:1026B00085B800C014FF35B9E2FC620F67958894B5
:1026C00000C000C0002C35B9E3FC620F00C0002C34
:1026D00085B800C013FF35B967958894E4FC620F94
:1026E00000C000C0002C35B96795889400C0002C4C
:1026F00085B800C012FF35B9E5FC620F6795889474
:1027000000C000C0002C35B9E6FC620F00C0002CF0
:1027100085B800C011FF35B967958894E7FC620F52
:1027200000C000C0002C35B96795889400C0002C0B
:1027300085B800C010FF35B9122FE110162F919403
:1027400000C000C0002C35B99A0C00C000C085B88C
:1027500000C017FF35B921816627889400C000C0EA
:10276000002C35B92111280F00C0002C85B800C0FD
:1027700016FF35B908F42FEF8195889400C000C08A
:10278000002C35B970FD620F00C0002C85B800C068
:1027900015FF35B96795889471FD620F00C000C0C0
:1027A000002C35B96795889400C0002C85B800C00E
:1027B00014FF35B972FD620F6795889400C000C0A0
:1027C000002C35B973FD620F00C0002C85B800C025
:1027D00013FF35B96795889474FD620F00C000C07F
:1027E000002C35B96795889400C0002C85B800C0CE
:1027F00012FF35B975FD620F6795889400C000C05F
:10280000002C35B976FD620F00C0002C85B800C0E1
:1028100011FF35B96795889477FD620F00C000C03D
:10282000002C35B96795889400C0002C85B800C08D
:1028300010FF35B9122F7111162F8D0D00C000C079
:10284000002C35B9119709F086CE4A815B8120EEC4
:1028500031E0DA010E943535DC01CB0164E0B69548
:10286000A795979587956A95D1F730E020E0B90153
:10287000EAE94E9F040E611D5E9F600D711D1124DB
:10288000650F711D860F971FA11DB11D893E43E085
:102890009407A105B10508F434C0885E9340A109EE
:1028A000B10942E0B695A795979587954A95D1F7D6
:1028B00047E0849F080E211D949F200D311D112497
:1028C000290F311D6091E00170E0860F971F280FDE
:1028D000391F80913F0390914003A0914103B09133
:1028E0004203432F5527840F951FA11DB11D8093CF
:1028F0003F0390934003A0934103B093420320937E
:10290000E0017894C201DF91CF911F910F91FF9068
:10291000EF90DF90CF90BF90AF909F908F907F907F
:102920005F904F900C946F0D229A08954F925F9292
:102930007F928F929F92AF92BF92CF92DF92EF924F
:10294000FF920F931F93CF93DF93EB010F962C0110
:102950000E94790DF8948A819B81181619060CF053
:10296000CDC1E881F98165B1862E689481F835B1D1
:102970003D7F35B9DA848F812D2D281B822F2F833F
:102980004F85042E000C550BAA81BB817D85FC84EC
:10299000EE847F5FF394E3949E819884B984AB8442
:1029A0001181C12C6C2D0C2D2C2D21811127889487
:1029B0002111280F08F42FEF8195889470FD120FD4
:1029C0001795889471FD120F1795889472FD120F58
:1029D0001795889473FD120F1795889474FD120F44
:1029E0001795889475FD120F1795889476FD120F30
:1029F0001795889477FD120F17958894622F71119F
:102A0000612F8D0D162F002C85B800C017FF35B92A
:102A100020816627889400C000C0002C35B92111A0
:102A2000290F00C0002C85B800C016FF35B908F486
:102A30002FEF9195889400C000C0002C35B9F0FCB0
:102A4000620F00C0002C85B800C015FF35B967952E
:102A50008894F1FC620F00C000C0002C35B9679566
:102A6000889400C0002C85B800C014FF35B9F2FC72
:102A7000620F6795889400C000C0002C35B9F3FC44
:102A8000620F00C0002C85B800C013FF35B96795F0
:102A90008894F4FC620F00C000C0002C35B9679523
:102AA000889400C0002C85B800C012FF35B9F5FC31
:102AB000620F6795889400C000C0002C35B9F6FC01
:102AC000620F00C0002C85B800C011FF35B96795B2
:102AD0008894F7FC620F00C000C0002C35B96795E0
:102AE000889400C0002C85B800C010FF35B9122FA3
:102AF000F110162F9B0D00C000C0002C35B900C08E
:102B000000C0002C85B800C017FF35B922816627A8
:102B1000889400C000C0002C35B92111290D00C0D7
:102B2000002C85B800C016FF35B908F42FEFE40F6C
:102B3000F51F00C000C0002C35B9E0FC620F00C0DA
:102B4000002C85B800C015FF35B967958894E1FC65
:102B5000620F00C000C0002C35B96795889400C092
:102B6000002C85B800C014FF35B9E2FC620F6795F0
:102B7000889400C000C0002C35B9E3FC620F00C08F
:102B8000002C85B800C013FF35B967958894E4FC24
:102B9000620F00C000C0002C35B96795889400C052
:102BA000002C85B800C012FF35B9E5FC620F6795AF
:102BB000889400C000C0002C35B9E6FC620F00C04C
:102BC000002C85B800C011FF35B967958894E7FCE3
:102BD000620F00C000C0002C35B96795889400C012
:102BE000002C85B800C010FF35B9122FE110162F48
:102BF000919400C000C0002C35B99A0C00C000C0F0
:102C000085B800C017FF35B921816627889400C0B8
:102C100000C0002C35B92111280F00C0002C85B848
:102C200000C016FF35B908F42FEF8195889400C0D5
:102C300000C0002C35B970FD620F00C0002C85B8B3
:102C400000C015FF35B96795889471FD620F00C00B
:102C500000C0002C35B96795889400C0002C85B859
:102C600000C014FF35B972FD620F6795889400C0EB
:102C700000C0002C35B973FD620F00C0002C85B870
:102C800000C013FF35B96795889474FD620F00C0CA
:102C900000C0002C35B96795889400C0002C85B819
:102CA00000C012FF35B975FD620F6795889400C0AA
:102CB00000C0002C35B976FD620F00C0002C85B82D
:102CC00000C011FF35B96795889477FD620F00C089
:102CD00000C0002C35B96795889400C0002C85B8D9
:102CE00000C010FF35B9122F7111162F8D0D00C0C5
:102CF00000C0002C35B9119709F086CE4A815B815E
:102D000020EE31E0DA010E943535DC01CB0164E0D0
:102D1000B695A795979587956A95D1F730E020E00D
:102D2000B901EAE94E9F040E611D5E9F600D711DA1
:102D30001124650F711D860F971FA11DB11D893EBE
:102D400043E09407A105B10508F434C0885E9340C0
:102D5000A109B10942E0B695A795979587954A953F
:102D6000D1F747E0849F080E211D949F200D311D4F
:102D70001124290F311D6091E00170E0860F971F2B
:102D8000280F391F80913F0390914003A091410388
:102D9000B0914203432F5527840F951FA11DB11DEC
:102DA00080933F0390934003A0934103B093420369
:102DB0002093E0017894C201DF91CF911F910F9190
:102DC000FF90EF90DF90CF90BF90AF909F908F904B
:102DD0007F905F904F900C946F0D219A08954F92C1
:102DE0005F927F928F929F92AF92BF92CF92DF922B
:102DF000EF92FF920F931F93CF93DF93EB010F9608
:102E00002C010E94790DF8948A819B81181619066D
:102E10000CF0CDC1E881F98165B1862E689480F807
:102E200035B13E7F35B9DA848F812D2D281B822F55
:102E30002F834F85042E000C550BAA81BB817D8505
:102E4000FC84EE847F5FF394E3949E819884B9843C
:102E5000AB841181C12C6C2D0C2D2C2D21811127BF
:102E600088942111280F08F42FEF8195889470FD24
:102E7000120F1795889471FD120F1795889472FDA3
:102E8000120F1795889473FD120F1795889474FD8F
:102E9000120F1795889475FD120F1795889476FD7B
:102EA000120F1795889477FD120F17958894622F4B
:102EB0007111612F8D0D162F002C85B800C017FFE2
:102EC00035B920816627889400C000C0002C35B930
:102ED0002111290F00C0002C85B800C016FF35B99C
:102EE00008F42FEF9195889400C000C0002C35B9EC
:102EF000F0FC620F00C0002C85B800C015FF35B98A
:102F000067958894F1FC620F00C000C0002C35B9B1
:102F10006795889400C0002C85B800C014FF35B9AF
:102F2000F2FC620F6795889400C000C0002C35B990
:102F3000F3FC620F00C0002C85B800C013FF35B948
:102F400067958894F4FC620F00C000C0002C35B96E
:102F50006795889400C0002C85B800C012FF35B971
:102F6000F5FC620F6795889400C000C0002C35B94D
:102F7000F6FC620F00C0002C85B800C011FF35B907
:102F800067958894F7FC620F00C000C0002C35B92B
:102F90006795889400C0002C85B800C010FF35B933
:102FA000122FF110162F9B0D00C000C0002C35B958
:102FB00000C000C0002C85B800C017FF35B92281C1
:102FC0006627889400C000C0002C35B92111290D56
:102FD00000C0002C85B800C016FF35B908F42FEFEB
:102FE000E40FF51F00C000C0002C35B9E0FC620FF3
:102FF00000C0002C85B800C015FF35B967958894CE
:10300000E1FC620F00C000C0002C35B967958894C0
:1030100000C0002C85B800C014FF35B9E2FC620F77
:103020006795889400C000C0002C35B9E3FC620F9E
:1030300000C0002C85B800C013FF35B9679588948F
:10304000E4FC620F00C000C0002C35B9679588947D
:1030500000C0002C85B800C012FF35B9E5FC620F36
:103060006795889400C000C0002C35B9E6FC620F5B
:1030700000C0002C85B800C011FF35B96795889451
:10308000E7FC620F00C000C0002C35B9679588943A
:1030900000C0002C85B800C010FF35B9122FE11018
:1030A000162F919400C000C0002C35B99A0C00C0B6
:1030B00000C085B800C017FF35B921816627889404
:1030C00000C000C0002C35B92111280F00C0002C11
:1030D00085B800C016FF35B908F42FEF81958894A4
:1030E00000C000C0002C35B970FD620F00C0002C7C
:1030F00085B800C015FF35B96795889471FD620FDA
:1031000000C000C0002C35B96795889400C0002C21
:1031100085B800C014FF35B972FD620F67958894B9
:1031200000C000C0002C35B973FD620F00C0002C38
:1031300085B800C013FF35B96795889474FD620F98
:1031400000C000C0002C35B96795889400C0002CE1
:1031500085B800C012FF35B975FD620F6795889478
:1031600000C000C0002C35B976FD620F00C0002CF5
:1031700085B800C011FF35B96795889477FD620F57
:1031800000C000C0002C35B96795889400C0002CA1
:1031900085B800C010FF35B9122F7111162F8D0D93
:1031A00000C000C0002C35B9119709F086CE4A81C5
:1031B0005B8120EE31E0DA010E943535DC01CB0184
:1031C00064E0B695A795979587956A95D1F730E015
:1031D00020E0B901EAE94E9F040E611D5E9F600D7B
:1031E000711D1124650F711D860F971FA11DB11D43
:1031F000893E43E09407A105B10508F434C0885E18
:103200009340A109B10942E0B695A7959795879596
:103210004A95D1F747E0849F080E211D949F200D09
:10322000311D1124290F311D6091E00170E0860FDE
:10323000971F280F391F80913F0390914003A09161
:103240004103B0914203432F5527840F951FA11DC1
:10325000B11D80933F0390934003A0934103B0932B
:1032600042032093E0017894C201DF91CF911F9136
:103270000F91FF90EF90DF90CF90BF90AF909F9015
:103280008F907F905F904F900C946F0D81E090E055
:103290000895209A08956F927F928F92CF92DF9235
:1032A000EF92FF920F931F93CF93DF93CDB7DEB7CB
:1032B00062970FB6F894DEBF0FBECDBF6C017A01E6
:1032C0003801822EDC011C962C91CA0157FF04C0E4
:1032D00088279927841B950B7A8369839C838B832A
:1032E0009E838D836D867E868F86213049F5CE0143
:1032F00001960E94320D83E0888B1A8A198AF7FEA4
:1033000002C08DEF888BD601ED91FC910684F78584
:10331000E02DBE016F5F7F4FC601099562960FB623
:10332000F894DEBF0FBECDBFDF91CF911F910F91FB
:10333000FF90EF90DF90CF908F907F906F900895E7
:103340001C861B861A86198618861F82D4CFEF9298
:10335000FF920F931F93CF93DF93CDB7DEB76297A2
:103360000FB6F894DEBF0FBECDBF7C01DC011C960A
:103370008C917A8369835C834B835E834D830D8755
:103380001E872F878130F9F4CE0101960E94320DFD
:10339000188A1A8A198AD701ED91FC910684F7855B
:1033A000E02DBE016F5F7F4FC701099562960FB692
:1033B000F894DEBF0FBECDBFDF91CF911F910F916B
:1033C000FF90EF9008951C861B861A861986188632
:1033D0001F82DECFCF93DF93EC01DA018C81681777
:1033E00018F5E881F9812C918A81882301F18B817C
:1033F000C82FC61BDD0BCE01880F991F8C0F9D1F98
:103400000397E80FF91F8081821708F42083119633
:103410008C9111979181981708F4818312968C9161
:103420009281981708F48283DF91CF910895D3E0B9
:103430006D9FE00DF11D1124E6CFCF92DF92EF9248
:10344000DC0190E083E015962C911597921720F5FA
:103450002D913C91119712964C911297FB01C080CF
:10346000D180E280442351F0989F200D311D11241A
:10347000F901C082D182E2829F5FE5CF1396EC9181
:103480001397E91BFF0BAF01440F551FE40FF51F06
:10349000E20FF31F3397EDCFEF90DF90CF900895B9
:1034A000CF92DF92EF92FC0184816817B8F42081FB
:1034B00031818281DA01CD90DD90EC90882391F00A
:1034C000E381E61BFF0BCF01880F991FE80FF91F5F
:1034D000E20FF31F3397C082D182E282EF90DF9038
:1034E000CF900895B3E06B9F200D311D1124F90199
:1034F000F2CF9B0190915703891770F4442331F068
:10350000AB01682F83E593E00C94EA19AB01682FB7
:1035100083E593E00C94501A682F691B442321F033
:10352000A9018DE493E0F0CFA9018DE493E0F2CFFF
:103530009091620380915C0320911E03222359F035
:1035400020916403921B9093630390915E03891B07
:1035500080935D03089590936303FACF90E080E039
:103560000895FC018585968508950F931F93CF9349
:10357000DF9300D01F92CDB7DEB7AB0119821A825C
:103580001B82DC01ED91FC910190F081E02D00E0C7
:1035900010E020E0BE016F5F7F4F09950F900F9004
:1035A0000F90DF91CF911F910F910895FC01019031
:1035B0000020E9F73197AF01481B590BBC0183EE9E
:1035C00093E00C94FE048EEC91E00C94D61ACF9309
:1035D000DF930E94EB05EC010E94E31A8C0F9D1F04
:1035E000DF91CF910895E0913C03F0E0E45EFC4F61
:1035F0008381882369F013828DE491E00E94E71AA9
:10360000E0913C03F0E0E45EFC4F83810C940709F9
:1036100081E0838385E491E0F1CF81E080933D03F5
:103620008AE191E00E94E71A87E70E940709109259
:103630003C0380911F030C9407098F929F92AF92D5
:10364000BF920F931F93CF93DF93CDB7DEB7A197B0
:103650000FB6F894DEBF0FBECDBF19A2423008F4FA
:103660004AE08E010F5D1F4F842E912CB12CA12CAE
:10367000A50194010E949E30E62FB901CA01EA30EB
:10368000F4F4E05DD801EE938D01232B242B252B40
:1036900079F790E080E0109719F0CD010E94D61ADA
:1036A000A1960FB6F894DEBF0FBECDBFDF91CF91CC
:1036B0001F910F91BF90AF909F908F900895E95CFC
:1036C000E1CFCF93DF930E94D61AEC010E94E31A58
:1036D0008C0F9D1FDF91CF910895CF93DF93682FBB
:1036E00070E090E080E04AE00E941D1BEC010E9427
:1036F000E31A8C0F9D1FDF91CF9108958F929F92B7
:10370000AF92BF92CF92DF92EF92FF92CF93DF936F
:10371000CEEAD4E0988121E02093BF039093E103A7
:103720001092C0031092E203682F80E894E00E9498
:10373000A20881E00E948C0663E088810E947C07D9
:10374000109272038093710380E894E00E945B08FA
:10375000092E000CAA0BBB0B8824982EA92EBA2E7A
:1037600080E894E00E945B08092E000CAA0BBB0BBA
:103770006C017D01C828D928EA28FB28FE2CED2CF5
:10378000DC2CCC2480E894E00E945B08BC01990FFB
:10379000880B990B6C297D298E299F29DF91CF9168
:1037A000FF90EF90DF90CF90BF90AF909F908F9061
:1037B00008952F923F924F925F926F927F928F92D5
:1037C0009F92AF92BF92CF92DF92EF92FF920F93B0
:1037D0001F93CF93DF93CDB7DEB76B970FB6F894F7
:1037E000DEBF0FBECDBF8AEF0E947E1B0091B404E6
:1037F0001091B50430E020E0C72ED82EE92EFF242A
:10380000E7FCFA94C01AD10AE20AF30AB7E09595E8
:10381000879577956795BA95D1F7000F111F221FED
:10382000331F4B015C01801A910AA20AB30AA50159
:103830009401A091B604B091B7040E9496304B0158
:103840005C015BE0B594A794979487945A95D1F75F
:10385000A7019601C701B6010E94EB349B01AC01A0
:103860006CE055954795379527956A95D1F7A091C6
:10387000B804B091B9040E949630EEE09595879512
:1038800077956795EA95D1F7860E971EA81EB91E03
:103890008092B0049092B104A092B204B092B304AA
:1038A00087EF0E947E1B6E8B7F8B888F998F809114
:1038B000B0049091B104A091B204B091B3046C0132
:1038C0007D01FF0CCC08DC2C76019C01AD016C2D38
:1038D0007C2D8C2D9C2D345F41405109610971096B
:1038E0008109910929873A874B87652E762E872E85
:1038F000982E9B8F5901C42ED52EE62EF72E082F19
:10390000192F0E943C35322E232E488B598B6A8BFF
:103910007B8B8C8B9D8B3091BD042091BC04932FAD
:10392000990F990B492F592F692F792F892F0E94B1
:103930003C350CE00E946B3629833C874A8F5D87BB
:103940006E877F87582E492E3091BF042091BE0488
:10395000932F990F990BA32CB22CC888D988EA8889
:10396000FB880C891D89492F592F692F792F892FA1
:103970000E943C3508E00E948436A980BC84CA8C31
:10398000DD84EE84FF84052D142D0E94A13670582D
:103990008F4F9F4FE091BA04F091BB045F01D12C8F
:1039A000C12CE12CF12C8701E983BA82CB82DC8225
:1039B000ED82FE820F831887C12CD12CE12CF12CD3
:1039C00000E010E00E943C3501E20E9484362A8F1C
:1039D000532E49835C876D877E878F87492EA0E0B1
:1039E0000E94B33609F436C13091C5042091C40455
:1039F000932F990F990BA32CB22CC888D988EA88E9
:103A0000FB880C891D89492F592F692F792F892F00
:103A10000E943C351901488B598B6A8B7B8B8C8BB0
:103A20009D8B3091C3042091C204932F990F990B61
:103A3000A984BA84CB84D62CE72CF82C092D1B8DB5
:103A4000492F592F692F792F892F0E943C3501E189
:103A50000E946B365101C888D988EA88FB880C8996
:103A60001D890E94A13659016A017B01382E192F48
:103A70004E895F89688D798D84E075956795579536
:103A800047958A95D1F780E090E0A0E1B0E0841BF3
:103A9000950BA60BB70B3C014D01990C6608762CD3
:103AA00043019C01AD01662D762D862D962D0FE1EB
:103AB0000E946B36722E832E942E5987B62FA72F15
:103AC000F82FE92F3091C1042091C004932F990F52
:103AD000990B492F592F692F792F892F03E20E94C3
:103AE0006B36032D0E94A13659016A017B018C01BE
:103AF000272D382D492D59856B2F7A2F8F2F9E2FEB
:103B00000E94AA36E5E3AE2EFCE0BF2EC12CD12CDC
:103B1000E12CF12C00E010E00E943C35AA8CB52C81
:103B2000C980DC84ED84FE840F85142D0E949635B7
:103B30002F873E8749875A876B8779838C879D8734
:103B40000DE00E948436922E832E742E652E562E02
:103B5000472E382E292E3091CB042091CA04932F62
:103B6000990F990BA92CB82CC72CD62CE52CF42C2A
:103B7000032D122D492F592F692F792F892F0E943C
:103B80003C350E943C3509E10E948436AF84BE84F6
:103B9000C984DA84EB84F9800C851D850E94A136E6
:103BA00019012A013B014C013091C9042091C8043C
:103BB000932F990F990B492F592F692F792F892FFF
:103BC0000E943C3503E10E94843659016A017B0161
:103BD0008C019101A201B301C4010E94A13608E049
:103BE0000E94843659016A017B01E82F192F309118
:103BF000C7042091C604932F990F990B492F592F71
:103C0000692F792F892F04E00E946B360E2F0E94B6
:103C1000A1360E94E93120E030E040E85BE30E94F9
:103C2000F4326B960FB6F894DEBF0FBECDBFDF91B6
:103C3000CF911F910F91FF90EF90DF90CF90BF90A9
:103C4000AF909F908F907F906F905F904F903F903C
:103C50002F90089560E070E0CB01E3CF9091AE0427
:103C600021E02093BF039093E1031092C0031092D0
:103C7000E203682F80E894E00E94A20881E00E949D
:103C80008C0681110EC061E08091AE040E947C0719
:103C9000109272038093710380E894E00E945B08A5
:103CA000089580E00895CF939091AE0421E0209391
:103CB000BF039093E1031092C0031092E203682FB8
:103CC00080E894E00E94A20881E00E948C068111A5
:103CD0001AC062E08091AE040E947C0710927203C9
:103CE0008093710380E894E00E945B08C82F80E80D
:103CF00094E00E945B0820E0822B9C2B9827892768
:103D00009827CF91089590E080E0F8CF362F329534
:103D10003F70262F2F70DC01E32FEE0FE30FE80F2B
:103D2000F92FF11D608171818281222309F42DC058
:103D30003F3011F0DF0113962295207F422F4095EE
:103D4000649F060E60E0611D3C91329F030E30E0DF
:103D5000311D630F749F070E70E0711D11963C9129
:103D60001197329F030E30E0311D730F382F349FAF
:103D7000030E30E0311D12968C91482F429F040EA5
:103D800040E0411D832F840F11240895EF92FF928C
:103D90000F931F93CF93DF9300D000D000D0CDB707
:103DA000DEB7F82E8091F1029091F2028F3F9105DB
:103DB00029F024F01092F2021092F10200E010E0DB
:103DC000EE24EA948091F10220915D0390916303C7
:103DD000290F3327331F1217130624F5800F898309
:103DE000EA82EB82BE016C5F7F4FCE0101960E949A
:103DF000EE0160915D03161760F46150611BAE0126
:103E00004C5F5F4F89E593E00E94501A1F5F0F0DD2
:103E1000D9CF812F861B682FAE014C5F5F4F8FE596
:103E200093E0F2CF00E010E0EE24EA948091F102FA
:103E30009091F2022091F002121790F5800F898381
:103E4000EA82EB82BE016C5F7F4FCE0101960E9439
:103E5000EE01AE014C5F5F4F612F87E493E00E945B
:103E6000501A8091EF02882351F040E0BE016C5F50
:103E70007F4F812F0E94791A1F5F0F0DD7CFAE01A0
:103E80004C5F5F4F612F83E593E00E94501AAE01B3
:103E90004C5F5F4F612F8DE493E00E94501AECCF8E
:103EA00001969093F2028093F1020E94EA03269613
:103EB0000FB6F894DEBF0FBECDBFDF91CF911F913B
:103EC0000F91FF90EF9008958F929F92AF92BF92C3
:103ED000CF92DF92EF92FF920F931F93CF9385E7DC
:103EE00091E00E94E71A8BE691E00E94EB05609159
:103EF0001C0370911D0390E080E040E10E941D1BB7
:103F00000E94E31A0FE113E0C12CD12C7601C9E025
:103F100085E691E00E94EB054AE0C701B6010E94E8
:103F20001D1B82E691E00E94EB05F80181918F0153
:103F3000C89FC0011124805E9E4F0E94611BFFEF4D
:103F4000CF1ADF0AEF0AFF0A84E1C816D104E104A0
:103F5000F104F1F686E591E00E94EB0580911E03E5
:103F6000C89FC0011124805E9E4F0E94611B0E9469
:103F7000E31A84EF91E00E94E71A8AEE91E00E9432
:103F8000EB056091E4027091E50290E080E040E191
:103F90000E941D1B0E94E31A83EE91E00E94EB0534
:103FA0008091E6020E946D1B8CED91E00E94EB0572
:103FB0008091E7020E946D1B85ED91E00E94EB0568
:103FC0008091E8020E946D1B8EEC91E00E94EB054F
:103FD0008091E9020E946D1B82EC91E00E94EB054A
:103FE0008091EA020E946D1B87EB91E00E94EB0535
:103FF0008091EB02C6E0C89FC00111248E5C9E4FE9
:104000000E94611B8CEA91E00E94EB058091EC021A
:10401000C89FC00111248E5C9E4F0E94611B81EAE3
:1040200091E00E94EB058091ED02C89FC001112430
:104030008E5C9E4F0E94611B86E991E00E94EB0519
:104040008091EE02C89FC00111248E5C9E4F0E9499
:10405000611B8AE891E00E94EB058091EF02C89F06
:10406000C00111248E5C9E4F0E94611B0E94E31AC6
:104070008EE092E00E94EB0560918C0470E090E08D
:1040800080E04AE00E941D1B89E092E00E94E71A4E
:104090000E94E31A8091A702882309F4BFC083E33A
:1040A00092E00E94E71A83E292E00E94EB05C09042
:1040B000F302D090F402E090F502F090F602A7012E
:1040C0009601C701B6010E94B1338823A9F081EDA2
:1040D00091E00E94D61A8FE192E00E94E71ACF91F8
:1040E0001F910F91FF90EF90DF90CF90BF90AF9016
:1040F0009F908F900C94E31A46015701E894B7F80B
:104100002FEF3FEF4FE75FE7C501B4010E94B133E6
:1041100081110DC02FEF3FEF4FE75FE7C501B401FD
:104120000E943C3118161CF485ED91E0D2CF2FEFA0
:104130003FEF4FE75FE4C701B6010E94EF32181668
:104140001CF489ED91E0C5CF2FEF3FEF4FE75FEC17
:10415000C701B6010E943C3187FDF3CF20E030E07B
:10416000A901C701B6010E943C3187FF09C06DE279
:1041700083EE93E00E949E05F7FAF094F7F8F0942E
:104180002AE037ED43EA5BE3C701B6010E94D03075
:104190004B015C010E94BA316B017C010E94EF313E
:1041A0009B01AC01C501B4010E94CF304B015C0101
:1041B0004AE0C701B6010E941D1B6EE283EE93E048
:1041C0000E949E0520E030E040E251E4C501B401C8
:1041D0000E94F4324B015C010E94BA316B01F12C58
:1041E000E12C4AE0C701B6010E941D1BC701B601C0
:1041F0000E94EF319B01AC01C501B4010E94CF3098
:1042000020E030E040E251E40E94F4320E94BA31F2
:1042100090E080E04AE00E941D1B5DCF88E492E0C0
:104220005CCF0F931F9390E0FC01EE58FC4F64911C
:10423000FC01E25AFC4FE491F0E0EE0FFF1FEC5A54
:10424000FC4F8591949108E813E120E030E0462F7F
:104250000E948023611571058105910529F06F5F2A
:104260007F4F8F4F9F4F9F701F910F910895009721
:1042700011F481E090E00C94BF360E94E43785EDA4
:104280008093BC008091BB039091BC03A091BD03BF
:10429000B091BE030796A11DB11D23E0B695A79569
:1042A000979587952A95D1F72091BC0024FD03C0EE
:1042B0001092B90308954091BB035091BC036091E3
:1042C000BD037091BE03452B462B472B69F3009726
:1042D000A105B10541F02AE22A95F1F700C0019746
:1042E000A109B109E1CF8091BA030C946B06FF924A
:1042F0000F931F93CF93DF930CE113E0D0E0C0E066
:10430000F801F1908F01CE010E945630F81621F08D
:104310006F2DCE010E945E302196C731D10581F705
:1043200087E091E0DF91CF911F910F91FF900C9466
:10433000E71A10923D0380E391E00E94E71A0E9481
:1043400077210E94910C87E70C94070980911E0346
:1043500091E0892780931E030E94981A8BEF90E0CA
:104360000E94EB0580911E03811106C08AEE90E049
:104370000E94E71A0C94772183EF90E0F9CF1F9207
:104380000F920FB60F9211242F933F938F939F9309
:10439000AF93BF9380913F0390914003A09141035D
:1043A000B091420330913E0323E0230F2D3758F59F
:1043B0000196A11DB11D20933E0380933F0390936E
:1043C0004003A0934103B093420380914303909133
:1043D0004403A0914503B09146030196A11DB11D70
:1043E0008093430390934403A0934503B093460303
:1043F000BF91AF919F918F913F912F910F900FBEE1
:104400000F901F90189526E8230F0296A11DB11D4D
:10441000D2CF1F920F920FB60F9211242F933F937A
:104420004F935F936F937F938F939F93AF93BF93BC
:10443000EF93FF9383EE93E00E947C05FF91EF9151
:10444000BF91AF919F918F917F916F915F914F91AC
:104450003F912F910F900FBE0F901F9018951F92B4
:104460000F920FB60F9211242F938F939F93EF9378
:10447000FF93E091F303F091F4038081E091F9035D
:10448000F091FA0382FD1BC090818091FC038F5F45
:104490008F732091FD03821741F0E091FC03F0E05F
:1044A000ED51FC4F958F8093FC03FF91EF919F910D
:1044B0008F912F910F900FBE0F901F9018958081B4
:1044C000F4CF1F920F920FB60F9211242F933F93A8
:1044D0004F935F936F937F938F939F93AF93BF930C
:1044E000EF93FF938091B900887F803609F44AC02A
:1044F000F0F5883209F4A7C018F5803109F49BC0A3
:10450000B8F4882309F4F9C0883009F494C0FF9105
:10451000EF91BF91AF919F918F917F916F915F913B
:104520004F913F912F910F900FBE0F901F901895B4
:10453000883109F488C0803251F78093B70314C0E2
:10454000803409F49DC040F48033B9F38833F9F620
:104550008093B70385ECB0C0803509F485C08835F9
:1045600009F496C0883499F60E943F21D0CF88394B
:1045700009F48CC038F5883729F050F4883611F0EA
:10458000803729F683E08093B9031092250257C043
:10459000883809F47BC0803919F0803809F0B7CF2A
:1045A00080912502803208F071C0E091250281E0FF
:1045B0008E0F809325028091BB00F0E0EB5FFD4FF2
:1045C00080833DC0803B39F0E0F4803A09F479C043
:1045D000883A09F09CCF84E08093B90310920402DA
:1045E00010920302E091A502F091A6020995809134
:1045F000030281110FC081E0809303021092E30156
:1046000009C0803C09F4A6CF883C09F4A3CF883BBD
:1046100009F07DCFE091040281E08E0F80930402C7
:10462000F0E0ED51FE4F80818093BB009091040239
:104630008091030229C0809194038093BB0085EC94
:104640008093BC0064CF9091B6038091B503981716
:1046500058F5E091B60381E08E0F8093B603F0E049
:10466000EB56FC4F8081E9CFE091B60381E08E0FDD
:104670008093B6038091BB00F0E0EB56FC4F808343
:104680009091B6038091B5039817C8F285E8D8CF0A
:10469000E091B60381E08E0F8093B6038091BB005A
:1046A000F0E0EB56FC4F80838091B80381115CCF22
:1046B00081E08093930384EA8093BC001092B90355
:1046C00026CF85EC8093BC001092B903809125021F
:1046D000803230F4E0912502F0E0EB5FFD4F108274
:1046E0006091250270E0E091A302F091A40285E0C0
:1046F00092E00995109225020ACF1092B70334CFA9
:10470000CF92DF92EF92FF920F931F93E82FF92F32
:1047100005C0015011092109310961F190819623E9
:104720009417B9F305C0015011092109310911F19C
:10473000908196239413F7CFC12CD12CE12CF12C2E
:104740000AC08FEFC81AD80AE80AF80A0C151D0526
:104750002E053F0579F080818623841791F36C2D17
:104760007D2D8E2D9F2D1F910F91FF90EF90DF904B
:10477000CF90089560E070E080E090E01F910F918D
:10478000FF90EF90DF90CF900895EF92FF920F93FC
:104790001F93CF93DF93EC017B018A01E881F981BC
:1047A0000480F581E02D0995FB82EA821E870D8742
:1047B000E881F9810484F585E02DCE010995009703
:1047C00001F19C0150E040E060E472E48FE090E091
:1047D0000E946C3080918F0490919004A09191047C
:1047E000B091920482179307A407B50710F4DA0179
:1047F000C90180938F0490939004A0939104B09387
:104800009204CE01DF91CF911F910F91FF90EF9015
:104810000895FC0182E191E09183808313821282EA
:104820008FEF86838783808781878287838781E074
:104830008487168615861582148280916B03909169
:104840006C03892B21F4F0936C03E0936B03A0912C
:10485000DE01B091DF01109721F01596FC93EE93E5
:104860001497F093DF01E093DE010895E3EEF3E0A7
:104870001382128288EE93E0A0E0B0E084839583F7
:10488000A683B7832EEA31E03183208325EC30E024
:104890003587248724EC30E03787268720EC30E00A
:1048A000318B208B21EC30E0338B228B22EC30E0FB
:1048B000358B248B26EC30E0378B268B118E128EB5
:1048C000138E148EE0E8F4E01382128284839583C1
:1048D000A683B78380EC91E091838083ECE8F4E0D9
:1048E0008FEF808312821182148613868FEF9FEFE1
:1048F000DC0187839087A187B28784E180939B0442
:1049000087E08093AD0486E08093A4048091060143
:10491000909107012091040130910501821B930BB6
:1049200064E170E00E94073560939A04759567957D
:10493000759567956F73772760939904EEEAF4E0B5
:1049400086E7808312821382148215820895CF93A2
:10495000DF93CDB7DEB7E8970FB6F894DEBF0FBE92
:10496000CDBF789484B5826084BD84B5816084BDF8
:1049700085B5826085BD85B5816085BD80916E00FD
:10498000816080936E00109281008091810082602E
:10499000809381008091810081608093810080916B
:1049A00080008160809380008091B100846080935A
:1049B000B1008091B00081608093B00080917A0056
:1049C000846080937A0080917A00826080937A007C
:1049D00080917A00816080937A0080917A0080686B
:1049E00080937A001092C10061E08DE00E944A033A
:1049F00060E08DE00E941C0362E086E00E944A03B2
:104A000062E087E00E944A0360E085E00E944A037A
:104A100060E084E00E944A03E091F303F091F40324
:104A200082E08083E091EF03F091F0031082E09147
:104A3000F103F091F20380E180831092FB03E09197
:104A4000F703F091F80386E08083E091F503F0919D
:104A5000F603808180618083E091F503F091F60395
:104A6000808188608083E091F503F091F603808176
:104A700080688083E091F503F091F60380818F7D5B
:104A800080837CE1E72E73E0F72E10E000E0C801A0
:104A90000E945630F70181937F010F5F1F4F07314E
:104AA0001105A9F78AE892E00E94E71A80911C0399
:104AB00090911D0383309A4AB9F083E09AEA90936B
:104AC0001D0380931C0344E150E061E070E08FE13E
:104AD00093E00E94E93781E080931E0380E692E034
:104AE0000E94E71A0E947721E0EFFDE785919491FB
:104AF0009093E5028093E40286EC92E00E94E71A2C
:104B00008091E4029091E50283309A4A09F4B1C0A1
:104B100083E09AEA9093E5028093E4028FE1809328
:104B2000E60284E08093E70282E18093E80288E075
:104B30008093E9028093EA021092EB021092EC0259
:104B40001092ED021092EE0281E08093EF028EE966
:104B500092E00E94E71AF090EA02E090EB020091E6
:104B6000E60213E0019F60011124C6010E94372173
:104B70009093600380935F03E0926103009362036C
:104B800000936303F0926403C6010E94372190935F
:104B90005A0380935903E0925B0300935C030093F4
:104BA0005D03F0925E03E090EC02F090E702F19E6C
:104BB000C00111240E943721909354038093530322
:104BC000E0925503F0925603F09257031092580367
:104BD000E090ED02B090E802B19EC00111240E9465
:104BE000372190934E0380934D03E0924F03B09290
:104BF0005003B092510310925203D090EE02E09015
:104C0000E902E19EC00111240E94372190934803DC
:104C100080934703D0924903E0924A03E0924B030A
:104C200010924C03C0905F03D0906003C114D10474
:104C3000A9F02091590330915A03232B79F0209148
:104C4000530330915403232B49F020914D033091AD
:104C50004E03232B19F0892B09F052C088ED92E006
:104C60000E94E71A68E873E180E090E00E94AB03DD
:104C7000F5CFE2EFFDE7E491E093E602E3EFFDE735
:104C8000E491E093E702E4EFFDE7E491E093E802CA
:104C9000E5EFFDE7E491E093E902E6EFFDE7E4915B
:104CA000E093EA02E7EFFDE7E49181E0E11101C062
:104CB00080E08093EB02E8EFFDE7E49181E0E11111
:104CC00001C080E08093EC02E9EFFDE7E49181E030
:104CD000E11101C080E08093ED02EAEFFDE7E4918D
:104CE00081E0E11101C080E08093EE02EBEFFDE78F
:104CF000E49181E0E11101C080E08093EF022BCFCD
:104D000010E04F2D4B0D5527551FCA01F12CE01611
:104D1000F1060CF478018E159F050CF4C701809301
:104D2000F00280913702811111C086E292E00E9468
:104D3000092410923602109235028AE491E0909391
:104D400027028093260281E080933702A801B601F2
:104D500086E292E00E94C5230091E60210E0E09016
:104D60005903F0905A0380915002811111C08FE3D2
:104D700092E00E94092410924F0210924E028EE59A
:104D800091E09093400280933F0281E08093500233
:104D9000A801B7018FE392E00E94C5230091E702CA
:104DA00010E0E0905303F090540380916902811168
:104DB00011C088E592E00E940924109268021092C6
:104DC000670282E791E0909359028093580281E054
:104DD00080936902A801B70188E592E00E94C5238B
:104DE0000091E80210E0E0904D03F0904E038091B6
:104DF0008202811111C081E792E00E940924109281
:104E000081021092800286E891E090937202809372
:104E1000710281E080938202A801B70181E792E0EC
:104E20000E94C5230091E90210E0E0904703F09052
:104E3000480380919B02811111C08AE892E00E9490
:104E4000092410929A02109299028AE991E09093B3
:104E50008B0280938A0281E080939B02A801B701B4
:104E60008AE892E00E94C5238091E902482F50E031
:104E70002091E60230E0220F331F8091E702280FD5
:104E8000311D8091E802820F932F911D840F951F91
:104E9000840F951F42E1489F9001499F300D1124D6
:104EA000032E000C440B550B68EF70E087E090E098
:104EB0000E949E302F3F31054105510529F020F019
:104EC0002FEF30E040E050E020938C040E94981ACD
:104ED00010927203109271031092C0031092E203B9
:104EE0000E944D068CEF94E09093A6028093A50259
:104EF0008DEF94E09093A4028093A3028CE08093C2
:104F0000B80080ED0E942E1E8093AF04883519F002
:104F1000803609F0C2C066EB80EE0E94D1086AE0DC
:104F200070E080E090E00E94AB0383EF0E942E1EB1
:104F300080FDF5CF88E80E94531E9093B5048093BE
:104F4000B4048AE80E94531E9093B7048093B60479
:104F50008CE80E94531E9093B9048093B8048EE8A5
:104F60000E94531E9093BB048093BA0480E90E9470
:104F7000531E9093BD048093BC0482E90E94531E8B
:104F80009093BF048093BE0484E90E94531E9093C3
:104F9000C1048093C00486E90E94531E9093C30409
:104FA0008093C20488E90E94531E9093C5048093A5
:104FB000C4048AE90E94531E9093C7048093C604D8
:104FC0008CE90E94531E9093C9048093C8048EE913
:104FD0000E94531E9093CB048093CA048091AF0427
:104FE0008036F1F581EA0E942E1E8093CC0481EE7A
:104FF0000E94531E9093CE048093CD0483EE0E94B2
:105000002E1E8093CF0484EE0E942E1E182F85EE54
:105010000E942E1E50E11502900111248F70282B42
:105020003093D1042093D00486EE0E942E1E182FB8
:1050300085EE0E942E1E90E119029001112490E04D
:1050400054E0959587955A95E1F7822B932B909391
:10505000D3048093D20487EE0E942E1E8093D40442
:1050600060E084EF0E94D1088091AF04803621F483
:1050700065E082EF0E94D10860E085EF0E94D108D0
:1050800067EB84EF0E94D10864E670E080E090E076
:105090000E94AB0381E08093A7028091A70288233E
:1050A00021F160E084EF0E94D1088091AF04803646
:1050B00021F465E082EF0E94D10868E285EF0E944A
:1050C000D10867E584EF0E94D1080E94D91B20E037
:1050D00030E048EC52E40E9441316093F302709357
:1050E000F4028093F5029093F6020E94910C0E94C4
:1050F000641F4AE0242E312C1FEF85EA94E00E94C1
:10510000A50C8CE994E00E94A50C00913D030023BE
:1051100009F412C18CE994E00E94250D82309105BA
:1051200009F0FCC00E94992185EA94E00E94250DB7
:10513000019711F40E94F31A0E94DE032B013C0137
:105140008091380390913903A0913A03B0913B03C9
:10515000B301A201481B590B6A0B7B0B8091020122
:1051600090910301092E000CAA0BBB0B8417950725
:10517000A607B70708F06CC0409238035092390375
:1051800060923A0370923B03809133038111DDC139
:1051900080913D038111D9C184E190E09093030196
:1051A000809302018091F1029091F2028F3091057B
:1051B0000CF0BDC119831A821B8261E08DE00E9450
:1051C0001C036091620370E0AE014F5F5F4F8091FE
:1051D0005F03909160030E94EF0860915C0370E0B0
:1051E000AE014F5F5F4F8091590390915A030E9427
:1051F000EF086091560370E0AE014F5F5F4F809102
:105200005303909154030E94EF086091500370E0A3
:10521000AE014F5F5F4F80914D0390914E030E940E
:10522000EF0860914A0370E0AE014F5F5F4F8091DD
:105230004703909148030E94EF080E94EA0380917F
:10524000F1029091F20201969093F2028093F102A2
:105250008091340390913503A0913603B0913703C8
:10526000A3019201281B390B4A0B5B0BDA01C90120
:105270004F97A105B105B0F180913303882351F117
:1052800080911E03882331F180911B03883308F03D
:10529000BFC6863320F48253823008F0BBC6198320
:1052A0001A831B83BE016F5F7F4F89E593E00E94E5
:1052B0001D1A19831A831B83BE016F5F7F4F8FE511
:1052C00093E00E941D1A0E94EA0380911B038F5FE6
:1052D00080931B034092340350923503609236034F
:1052E0007092370383EE93E00E945C05181619064E
:1052F0000CF0A9C683EE93E00E943A0590913D031D
:10530000992309F4C8C68B3509F4B8C60CF094C6C5
:10531000803209F4BDC60E94641F95C6019709F04A
:1053200003CF80913C0390E0019664E170E00E941D
:105330001B3580933C03F8CE8091B102823088F413
:1053400085E00E9411219B012D5B3240233A3640BB
:1053500040F421E02093B1027093B0026093AF0259
:1053600001E08091B1028D7F09F079C084E00E9454
:1053700011219B012D5B3240233A364008F06FC06B
:1053800022E02093B1027093AE026093AD021092BE
:10539000A80281E0809333038091A802843630F024
:1053A0001092B102109233031092A8028091B102C0
:1053B00000913C03813009F07DC0E090AF02F09095
:1053C000B002209104013091050180910601909175
:1053D0000701E216F30608F44AC08E159F0570F423
:1053E00030930501209304018E159F0508F4C70131
:1053F00090930701809306010E94770C202F30E0E4
:105400000023B9F140919904809104019091050124
:10541000841B910940919A04049F800D911D1124D1
:10542000E816F90630F5015000933C0380913C03E7
:1054300060919B040E94FB3490933C038CE994E0C0
:105440000E94250D7C0185EA94E00E94250D42E032
:10545000E416F10409F065C00E940D1B6DCE011128
:1054600096CF8091A8028F5F8093A80295CF970175
:10547000B7CF80919B048150990B28173907B4F658
:1054800040919A042F5F3F4F429FC001439F900D70
:105490001124209199044091040150910501240F99
:1054A000352F311D820F931F8E159F0508F0BECF3B
:1054B0000F5FBACF823009F0B9CFE090AD02F09023
:1054C000AE020E94DE032DEDE21625E0F20620F189
:1054D000C090A902D090AA02E090AB02F090AC027A
:1054E0009B01AC012C193D094E095F0969017A0144
:1054F00031EDC31637E0D306E104F10408F496CF8A
:105500000F5F00933C036093A9027093AA028093FB
:10551000AB029093AC028ACF6B5C77408109910912
:10552000F2CF029709F008CE0E94A62105CE4E9731
:105530002CF419821A821B8260E040CE8FEF9FEF1D
:105540009093F2028093F1023CCE60E08DE00E94E5
:105550001C0390913C0380911A03981711F181E08C
:10556000809305031092F2021092F10219821A82BE
:105570001B82CE0101960E94060B89EF92E00E94E9
:10558000EB0580913C030E946D1B80913D03E091EF
:105590003C03F0E0882361F0E45EFC4F83810E94CD
:1055A0000709E0913C03F0E080913D03811104C0C4
:1055B000EA5FFC4FE081F0E0E431F10528F5ED51C0
:1055C000F54D0C942F35F72A1E2B262B282B2A2B32
:1055D0002E2B312B342B382B3E2B422B452B0E2CD4
:1055E000132C162C192CAF2C442D3C2EAD2E1982C9
:1055F0001A821B82CE0101960E94060B82E390E084
:1056000090930301809302011092050380913C0363
:1056100080931A038091010390910203A0910303E8
:10562000B09104030196A11DB11D809301039093D5
:105630000203A0930303B09304030ACE8AE00E94FE
:10564000C61E3092030120920201DECF80E0F7CF28
:105650001983CECF19838CE88A83CBCF19831A8321
:10566000C8CF198280E8F8CF19821A821B83C2CF73
:105670008BE489831A8282E88B83BCCF19828BE802
:105680008A83FACF19831A83F1CF009105038091A1
:10569000DC0281110CC08091620390E00E943721EE
:1056A0009093DB028093DA0281E08093DC028091A8
:1056B000D20281110CC080915C0390E00E943721DE
:1056C0009093D1028093D00281E08093D2028091A6
:1056D000C80281110CC08091560390E00E943721CE
:1056E0009093C7028093C60281E08093C8028091A4
:1056F000BE0281110CC08091500390E00E943721BE
:105700009093BD028093BC0281E08093BE028091A1
:10571000B40281110CC080914A0390E00E943721AD
:105720009093B3028093B20281E08093B402C09060
:10573000DA02D090DB02E090D002F090D102A0908B
:10574000C602B090C7028090BC029090BD02E0916A
:10575000B202F091B302FDABECAB002349F14091F2
:10576000620350E070E060E0C6010E94E9374091BA
:105770005C0350E070E060E0C7010E94E9374091AF
:10578000560350E070E060E0C5010E94E9374091A7
:10579000500350E070E060E0C4010E94E93740919E
:1057A0004A0350E070E060E08CA99DA90E94E937AF
:1057B000202F40916303B60180915F0390916003B5
:1057C0000E949A09202F40915D03B70180915903EF
:1057D00090915A030E949A09202F40915703B501D6
:1057E00080915303909154030E949A09202F409175
:1057F0005103B40180914D0390914E030E949A0988
:10580000202F40914B036CA97DA980914703909173
:1058100048030E949A090E94EA0313CF83E090E0B4
:105820000E943D0AEBCE82E090E0FACF81E090E06A
:10583000F7CF19831A831B838FE593E00E948A02B6
:1058400089E593E00E948A028DE493E00E948A0237
:1058500083E593E00E948A0287E493E00E948A0233
:1058600082E390E00E943A0B209163032150682F5D
:10587000629F060E60E0611D1124AE014F5F5F4F15
:105880008FE593E00E94501A82E390E00E943A0B69
:1058900020915D032150682F629F060E60E0611D1C
:1058A0001124AE014F5F5F4F89E593E00E94501ACB
:1058B00080E590E00E943A0B20914B032150682F25
:1058C000629F060E60E0611D1124AE014F5F5F4FC5
:1058D00087E493E00E94501A8091EF0200915703F1
:1058E0008823B1F083E290E00E943A0B909151033B
:1058F000090F0150282F209F020E20E0211D1124A6
:10590000822F40E0BE016F5F7F4F0E94791A83CFE4
:1059100080E590E00E943A0B0150682F609F060ED0
:1059200060E0611D1124AE014F5F5F4F83E593E09E
:105930000E94501A83E290E00E943A0B209151039A
:105940002150682F629F060E60E0611D1124AE0198
:105950004F5F5F4F8DE493E00E94501A5CCF198334
:105960001A821B828FE593E00E948A0289E593E008
:105970000E948A028DE493E00E948A0283E593E00C
:105980000E948A0287E493E00E948A0200915D03EC
:10599000F0906303F00EFA948EE190E00E943A0BCF
:1059A00087FD8095682F660F3F2D639F060E60E090
:1059B000611D1124601708F03AC00150061B602FCA
:1059C000AE014F5F5F4F89E593E00E94501A00914E
:1059D0004B03015082E390E00E943A0B87FD8095D3
:1059E000880F682F609F060E60E0611D1124AE01D4
:1059F0004F5F5F4F87E493E00E94501A8091EF025F
:105A0000009157038823D1F080915103080F015072
:105A10008EE190E00E943A0B87FD8095880F482F19
:105A2000409F040E40E0411D1124842F6ACF601B6B
:105A3000AE014F5F5F4F8FE593E0C7CF015082E328
:105A400090E00E943A0B87FD8095880F682F609F39
:105A5000060E60E0611D1124AE014F5F5F4F83E5CC
:105A600093E00E94501A0091510301508EE190E0A2
:105A70000E943A0B87FD8095880F682F609F060E65
:105A800060E0611D112463CF8FE593E00E948A02DC
:105A900089E593E00E948A028DE493E00E948A02E5
:105AA00083E593E00E948A0287E493E00E948A02E1
:105AB00028E0E22EF12C00E038ECD32E81E090E0DB
:105AC0000E943A0B800F8983DA821B83BE016F5CD0
:105AD0007F4FCE0101960E94EE01C090630380913A
